{
  "_format": "hh-sol-artifact-1",
  "contractName": "DynamicSvgNft",
  "sourceName": "contracts/DynamicSvgNft.sol",
  "abi": [
    {
      "inputs": [
        {
          "internalType": "address",
          "name": "priceFeedAddress",
          "type": "address"
        },
        {
          "internalType": "string",
          "name": "lowSvg",
          "type": "string"
        },
        {
          "internalType": "string",
          "name": "highSvg",
          "type": "string"
        }
      ],
      "stateMutability": "nonpayable",
      "type": "constructor"
    },
    {
      "inputs": [],
      "name": "DynamicSvgNft__InvalidPriceFeed",
      "type": "error"
    },
    {
      "inputs": [],
      "name": "DynamicSvgNft__NonExistentToken",
      "type": "error"
    },
    {
      "inputs": [
        {
          "internalType": "address",
          "name": "sender",
          "type": "address"
        },
        {
          "internalType": "uint256",
          "name": "tokenId",
          "type": "uint256"
        },
        {
          "internalType": "address",
          "name": "owner",
          "type": "address"
        }
      ],
      "name": "ERC721IncorrectOwner",
      "type": "error"
    },
    {
      "inputs": [
        {
          "internalType": "address",
          "name": "operator",
          "type": "address"
        },
        {
          "internalType": "uint256",
          "name": "tokenId",
          "type": "uint256"
        }
      ],
      "name": "ERC721InsufficientApproval",
      "type": "error"
    },
    {
      "inputs": [
        {
          "internalType": "address",
          "name": "approver",
          "type": "address"
        }
      ],
      "name": "ERC721InvalidApprover",
      "type": "error"
    },
    {
      "inputs": [
        {
          "internalType": "address",
          "name": "operator",
          "type": "address"
        }
      ],
      "name": "ERC721InvalidOperator",
      "type": "error"
    },
    {
      "inputs": [
        {
          "internalType": "address",
          "name": "owner",
          "type": "address"
        }
      ],
      "name": "ERC721InvalidOwner",
      "type": "error"
    },
    {
      "inputs": [
        {
          "internalType": "address",
          "name": "receiver",
          "type": "address"
        }
      ],
      "name": "ERC721InvalidReceiver",
      "type": "error"
    },
    {
      "inputs": [
        {
          "internalType": "address",
          "name": "sender",
          "type": "address"
        }
      ],
      "name": "ERC721InvalidSender",
      "type": "error"
    },
    {
      "inputs": [
        {
          "internalType": "uint256",
          "name": "tokenId",
          "type": "uint256"
        }
      ],
      "name": "ERC721NonexistentToken",
      "type": "error"
    },
    {
      "inputs": [
        {
          "internalType": "address",
          "name": "owner",
          "type": "address"
        }
      ],
      "name": "OwnableInvalidOwner",
      "type": "error"
    },
    {
      "inputs": [
        {
          "internalType": "address",
          "name": "account",
          "type": "address"
        }
      ],
      "name": "OwnableUnauthorizedAccount",
      "type": "error"
    },
    {
      "anonymous": false,
      "inputs": [
        {
          "indexed": true,
          "internalType": "address",
          "name": "owner",
          "type": "address"
        },
        {
          "indexed": true,
          "internalType": "address",
          "name": "approved",
          "type": "address"
        },
        {
          "indexed": true,
          "internalType": "uint256",
          "name": "tokenId",
          "type": "uint256"
        }
      ],
      "name": "Approval",
      "type": "event"
    },
    {
      "anonymous": false,
      "inputs": [
        {
          "indexed": true,
          "internalType": "address",
          "name": "owner",
          "type": "address"
        },
        {
          "indexed": true,
          "internalType": "address",
          "name": "operator",
          "type": "address"
        },
        {
          "indexed": false,
          "internalType": "bool",
          "name": "approved",
          "type": "bool"
        }
      ],
      "name": "ApprovalForAll",
      "type": "event"
    },
    {
      "anonymous": false,
      "inputs": [
        {
          "indexed": true,
          "internalType": "uint256",
          "name": "tokenId",
          "type": "uint256"
        },
        {
          "indexed": false,
          "internalType": "int256",
          "name": "highValue",
          "type": "int256"
        }
      ],
      "name": "CreatedNFT",
      "type": "event"
    },
    {
      "anonymous": false,
      "inputs": [
        {
          "indexed": true,
          "internalType": "address",
          "name": "previousOwner",
          "type": "address"
        },
        {
          "indexed": true,
          "internalType": "address",
          "name": "newOwner",
          "type": "address"
        }
      ],
      "name": "OwnershipTransferred",
      "type": "event"
    },
    {
      "anonymous": false,
      "inputs": [
        {
          "indexed": true,
          "internalType": "address",
          "name": "from",
          "type": "address"
        },
        {
          "indexed": true,
          "internalType": "address",
          "name": "to",
          "type": "address"
        },
        {
          "indexed": true,
          "internalType": "uint256",
          "name": "tokenId",
          "type": "uint256"
        }
      ],
      "name": "Transfer",
      "type": "event"
    },
    {
      "inputs": [
        {
          "internalType": "address",
          "name": "to",
          "type": "address"
        },
        {
          "internalType": "uint256",
          "name": "tokenId",
          "type": "uint256"
        }
      ],
      "name": "approve",
      "outputs": [],
      "stateMutability": "nonpayable",
      "type": "function"
    },
    {
      "inputs": [
        {
          "internalType": "address",
          "name": "owner",
          "type": "address"
        }
      ],
      "name": "balanceOf",
      "outputs": [
        {
          "internalType": "uint256",
          "name": "",
          "type": "uint256"
        }
      ],
      "stateMutability": "view",
      "type": "function"
    },
    {
      "inputs": [
        {
          "internalType": "uint256",
          "name": "tokenId",
          "type": "uint256"
        }
      ],
      "name": "getApproved",
      "outputs": [
        {
          "internalType": "address",
          "name": "",
          "type": "address"
        }
      ],
      "stateMutability": "view",
      "type": "function"
    },
    {
      "inputs": [],
      "name": "getHighSVG",
      "outputs": [
        {
          "internalType": "string",
          "name": "",
          "type": "string"
        }
      ],
      "stateMutability": "view",
      "type": "function"
    },
    {
      "inputs": [],
      "name": "getLowSVG",
      "outputs": [
        {
          "internalType": "string",
          "name": "",
          "type": "string"
        }
      ],
      "stateMutability": "view",
      "type": "function"
    },
    {
      "inputs": [],
      "name": "getPriceFeed",
      "outputs": [
        {
          "internalType": "contract AggregatorV3Interface",
          "name": "",
          "type": "address"
        }
      ],
      "stateMutability": "view",
      "type": "function"
    },
    {
      "inputs": [],
      "name": "getTokenCounter",
      "outputs": [
        {
          "internalType": "uint256",
          "name": "",
          "type": "uint256"
        }
      ],
      "stateMutability": "view",
      "type": "function"
    },
    {
      "inputs": [
        {
          "internalType": "uint256",
          "name": "tokenId",
          "type": "uint256"
        }
      ],
      "name": "getTokenIdToHighValue",
      "outputs": [
        {
          "internalType": "int256",
          "name": "",
          "type": "int256"
        }
      ],
      "stateMutability": "view",
      "type": "function"
    },
    {
      "inputs": [
        {
          "internalType": "address",
          "name": "owner",
          "type": "address"
        },
        {
          "internalType": "address",
          "name": "operator",
          "type": "address"
        }
      ],
      "name": "isApprovedForAll",
      "outputs": [
        {
          "internalType": "bool",
          "name": "",
          "type": "bool"
        }
      ],
      "stateMutability": "view",
      "type": "function"
    },
    {
      "inputs": [
        {
          "internalType": "int256",
          "name": "highValue",
          "type": "int256"
        }
      ],
      "name": "mintNft",
      "outputs": [],
      "stateMutability": "nonpayable",
      "type": "function"
    },
    {
      "inputs": [],
      "name": "name",
      "outputs": [
        {
          "internalType": "string",
          "name": "",
          "type": "string"
        }
      ],
      "stateMutability": "view",
      "type": "function"
    },
    {
      "inputs": [],
      "name": "owner",
      "outputs": [
        {
          "internalType": "address",
          "name": "",
          "type": "address"
        }
      ],
      "stateMutability": "view",
      "type": "function"
    },
    {
      "inputs": [
        {
          "internalType": "uint256",
          "name": "tokenId",
          "type": "uint256"
        }
      ],
      "name": "ownerOf",
      "outputs": [
        {
          "internalType": "address",
          "name": "",
          "type": "address"
        }
      ],
      "stateMutability": "view",
      "type": "function"
    },
    {
      "inputs": [],
      "name": "renounceOwnership",
      "outputs": [],
      "stateMutability": "nonpayable",
      "type": "function"
    },
    {
      "inputs": [
        {
          "internalType": "address",
          "name": "from",
          "type": "address"
        },
        {
          "internalType": "address",
          "name": "to",
          "type": "address"
        },
        {
          "internalType": "uint256",
          "name": "tokenId",
          "type": "uint256"
        }
      ],
      "name": "safeTransferFrom",
      "outputs": [],
      "stateMutability": "nonpayable",
      "type": "function"
    },
    {
      "inputs": [
        {
          "internalType": "address",
          "name": "from",
          "type": "address"
        },
        {
          "internalType": "address",
          "name": "to",
          "type": "address"
        },
        {
          "internalType": "uint256",
          "name": "tokenId",
          "type": "uint256"
        },
        {
          "internalType": "bytes",
          "name": "data",
          "type": "bytes"
        }
      ],
      "name": "safeTransferFrom",
      "outputs": [],
      "stateMutability": "nonpayable",
      "type": "function"
    },
    {
      "inputs": [
        {
          "internalType": "address",
          "name": "operator",
          "type": "address"
        },
        {
          "internalType": "bool",
          "name": "approved",
          "type": "bool"
        }
      ],
      "name": "setApprovalForAll",
      "outputs": [],
      "stateMutability": "nonpayable",
      "type": "function"
    },
    {
      "inputs": [
        {
          "internalType": "bytes4",
          "name": "interfaceId",
          "type": "bytes4"
        }
      ],
      "name": "supportsInterface",
      "outputs": [
        {
          "internalType": "bool",
          "name": "",
          "type": "bool"
        }
      ],
      "stateMutability": "view",
      "type": "function"
    },
    {
      "inputs": [
        {
          "internalType": "string",
          "name": "svg",
          "type": "string"
        }
      ],
      "name": "svgToImageURI",
      "outputs": [
        {
          "internalType": "string",
          "name": "",
          "type": "string"
        }
      ],
      "stateMutability": "pure",
      "type": "function"
    },
    {
      "inputs": [],
      "name": "symbol",
      "outputs": [
        {
          "internalType": "string",
          "name": "",
          "type": "string"
        }
      ],
      "stateMutability": "view",
      "type": "function"
    },
    {
      "inputs": [
        {
          "internalType": "uint256",
          "name": "tokenId",
          "type": "uint256"
        }
      ],
      "name": "tokenURI",
      "outputs": [
        {
          "internalType": "string",
          "name": "",
          "type": "string"
        }
      ],
      "stateMutability": "view",
      "type": "function"
    },
    {
      "inputs": [
        {
          "internalType": "address",
          "name": "from",
          "type": "address"
        },
        {
          "internalType": "address",
          "name": "to",
          "type": "address"
        },
        {
          "internalType": "uint256",
          "name": "tokenId",
          "type": "uint256"
        }
      ],
      "name": "transferFrom",
      "outputs": [],
      "stateMutability": "nonpayable",
      "type": "function"
    },
    {
      "inputs": [
        {
          "internalType": "address",
          "name": "newOwner",
          "type": "address"
        }
      ],
      "name": "transferOwnership",
      "outputs": [],
      "stateMutability": "nonpayable",
      "type": "function"
    }
  ],
  "bytecode": "0x60a060405234801561001057600080fd5b50604051613809380380613809833981810160405281019061003291906106b4565b336040518060400160405280600f81526020017f44796e616d696320535647204e465400000000000000000000000000000000008152506040518060400160405280600381526020017f44534e000000000000000000000000000000000000000000000000000000000081525081600090816100ae9190610960565b5080600190816100be9190610960565b505050600073ffffffffffffffffffffffffffffffffffffffff168173ffffffffffffffffffffffffffffffffffffffff16036101335760006040517f1e4fbdf700000000000000000000000000000000000000000000000000000000815260040161012a9190610a41565b60405180910390fd5b6101428161022960201b60201c565b50600073ffffffffffffffffffffffffffffffffffffffff168373ffffffffffffffffffffffffffffffffffffffff16036101a9576040517f1c7dbca900000000000000000000000000000000000000000000000000000000815260040160405180910390fd5b60006007819055508273ffffffffffffffffffffffffffffffffffffffff1660808173ffffffffffffffffffffffffffffffffffffffff16815250506101f4826102ef60201b60201c565b600890816102029190610960565b50610212816102ef60201b60201c565b600990816102209190610960565b50505050610bc1565b6000600660009054906101000a900473ffffffffffffffffffffffffffffffffffffffff16905081600660006101000a81548173ffffffffffffffffffffffffffffffffffffffff021916908373ffffffffffffffffffffffffffffffffffffffff1602179055508173ffffffffffffffffffffffffffffffffffffffff168173ffffffffffffffffffffffffffffffffffffffff167f8be0079c531659141344cd1fd0a4f28419497f9722a3daafe3b4186f6b6457e060405160405180910390a35050565b606060006040518060400160405280601a81526020017f646174613a696d6167652f7376672b786d6c3b6261736536342c0000000000008152509050600061033c8461036960201b60201c565b90508181604051602001610351929190610a98565b60405160208183030381529060405292505050919050565b6060600082510361038b576040518060200160405280600081525090506104dc565b60006040518060600160405280604081526020016137c960409139905060006003600285516103ba9190610aeb565b6103c49190610b4e565b60046103d09190610b7f565b905060006020826103e19190610aeb565b67ffffffffffffffff8111156103fa576103f961056e565b5b6040519080825280601f01601f19166020018201604052801561042c5781602001600182028036833780820191505090505b509050818152600183018586518101602084015b8183101561049b576003830192508251603f8160121c168501518253600182019150603f81600c1c168501518253600182019150603f8160061c168501518253600182019150603f8116850151825360018201915050610440565b6003895106600181146104b557600281146104c5576104d0565b613d3d60f01b60028303526104d0565b603d60f81b60018303525b50505050508093505050505b919050565b6000604051905090565b600080fd5b600080fd5b600073ffffffffffffffffffffffffffffffffffffffff82169050919050565b6000610520826104f5565b9050919050565b61053081610515565b811461053b57600080fd5b50565b60008151905061054d81610527565b92915050565b600080fd5b600080fd5b6000601f19601f8301169050919050565b7f4e487b7100000000000000000000000000000000000000000000000000000000600052604160045260246000fd5b6105a68261055d565b810181811067ffffffffffffffff821117156105c5576105c461056e565b5b80604052505050565b60006105d86104e1565b90506105e4828261059d565b919050565b600067ffffffffffffffff8211156106045761060361056e565b5b61060d8261055d565b9050602081019050919050565b60005b8381101561063857808201518184015260208101905061061d565b60008484015250505050565b6000610657610652846105e9565b6105ce565b90508281526020810184848401111561067357610672610558565b5b61067e84828561061a565b509392505050565b600082601f83011261069b5761069a610553565b5b81516106ab848260208601610644565b91505092915050565b6000806000606084860312156106cd576106cc6104eb565b5b60006106db8682870161053e565b935050602084015167ffffffffffffffff8111156106fc576106fb6104f0565b5b61070886828701610686565b925050604084015167ffffffffffffffff811115610729576107286104f0565b5b61073586828701610686565b9150509250925092565b600081519050919050565b7f4e487b7100000000000000000000000000000000000000000000000000000000600052602260045260246000fd5b6000600282049050600182168061079157607f821691505b6020821081036107a4576107a361074a565b5b50919050565b60008190508160005260206000209050919050565b60006020601f8301049050919050565b600082821b905092915050565b60006008830261080c7fffffffffffffffffffffffffffffffffffffffffffffffffffffffffffffffff826107cf565b61081686836107cf565b95508019841693508086168417925050509392505050565b6000819050919050565b6000819050919050565b600061085d6108586108538461082e565b610838565b61082e565b9050919050565b6000819050919050565b61087783610842565b61088b61088382610864565b8484546107dc565b825550505050565b600090565b6108a0610893565b6108ab81848461086e565b505050565b5b818110156108cf576108c4600082610898565b6001810190506108b1565b5050565b601f821115610914576108e5816107aa565b6108ee846107bf565b810160208510156108fd578190505b610911610909856107bf565b8301826108b0565b50505b505050565b600082821c905092915050565b600061093760001984600802610919565b1980831691505092915050565b60006109508383610926565b9150826002028217905092915050565b6109698261073f565b67ffffffffffffffff8111156109825761098161056e565b5b61098c8254610779565b6109978282856108d3565b600060209050601f8311600181146109ca57600084156109b8578287015190505b6109c28582610944565b865550610a2a565b601f1984166109d8866107aa565b60005b82811015610a00578489015182556001820191506020850194506020810190506109db565b86831015610a1d5784890151610a19601f891682610926565b8355505b6001600288020188555050505b505050505050565b610a3b81610515565b82525050565b6000602082019050610a566000830184610a32565b92915050565b600081905092915050565b6000610a728261073f565b610a7c8185610a5c565b9350610a8c81856020860161061a565b80840191505092915050565b6000610aa48285610a67565b9150610ab08284610a67565b91508190509392505050565b7f4e487b7100000000000000000000000000000000000000000000000000000000600052601160045260246000fd5b6000610af68261082e565b9150610b018361082e565b9250828201905080821115610b1957610b18610abc565b5b92915050565b7f4e487b7100000000000000000000000000000000000000000000000000000000600052601260045260246000fd5b6000610b598261082e565b9150610b648361082e565b925082610b7457610b73610b1f565b5b828204905092915050565b6000610b8a8261082e565b9150610b958361082e565b9250828202610ba38161082e565b91508282048414831517610bba57610bb9610abc565b5b5092915050565b608051612be6610be360003960008181610a670152610b3a0152612be66000f3fe608060405234801561001057600080fd5b506004361061014d5760003560e01c8063715018a6116100c3578063b88d4fde1161007c578063b88d4fde1461038c578063c87b56dd146103a8578063e985e9c5146103d8578063ed28a12214610408578063f28a573614610426578063f2fde38b146104565761014d565b8063715018a6146102ee57806376f6056b146102f85780638da5cb5b1461031657806395d89b41146103345780639e87a5cd14610352578063a22cb465146103705761014d565b806323b872dd1161011557806323b872dd1461020857806330d871c61461022457806342842e0e146102545780636352211e146102705780636e02007d146102a057806370a08231146102be5761014d565b806301ffc9a71461015257806306fdde0314610182578063081812fc146101a0578063095ea7b3146101d05780631e930812146101ec575b600080fd5b61016c60048036038101906101679190611de2565b610472565b6040516101799190611e2a565b60405180910390f35b61018a610554565b6040516101979190611ed5565b60405180910390f35b6101ba60048036038101906101b59190611f2d565b6105e6565b6040516101c79190611f9b565b60405180910390f35b6101ea60048036038101906101e59190611fe2565b610602565b005b61020660048036038101906102019190612058565b610618565b005b610222600480360381019061021d9190612085565b610695565b005b61023e6004803603810190610239919061220d565b610797565b60405161024b9190611ed5565b60405180910390f35b61026e60048036038101906102699190612085565b61080b565b005b61028a60048036038101906102859190611f2d565b61082b565b6040516102979190611f9b565b60405180910390f35b6102a861083d565b6040516102b59190612265565b60405180910390f35b6102d860048036038101906102d39190612280565b610847565b6040516102e59190612265565b60405180910390f35b6102f6610901565b005b610300610915565b60405161030d9190611ed5565b60405180910390f35b61031e6109a7565b60405161032b9190611f9b565b60405180910390f35b61033c6109d1565b6040516103499190611ed5565b60405180910390f35b61035a610a63565b604051610367919061230c565b60405180910390f35b61038a60048036038101906103859190612353565b610a8b565b005b6103a660048036038101906103a19190612434565b610aa1565b005b6103c260048036038101906103bd9190611f2d565b610ac6565b6040516103cf9190611ed5565b60405180910390f35b6103f260048036038101906103ed91906124b7565b610d66565b6040516103ff9190611e2a565b60405180910390f35b610410610dfa565b60405161041d9190611ed5565b60405180910390f35b610440600480360381019061043b9190611f2d565b610e8c565b60405161044d9190612506565b60405180910390f35b610470600480360381019061046b9190612280565b610ea9565b005b60007f80ac58cd000000000000000000000000000000000000000000000000000000007bffffffffffffffffffffffffffffffffffffffffffffffffffffffff1916827bffffffffffffffffffffffffffffffffffffffffffffffffffffffff1916148061053d57507f5b5e139f000000000000000000000000000000000000000000000000000000007bffffffffffffffffffffffffffffffffffffffffffffffffffffffff1916827bffffffffffffffffffffffffffffffffffffffffffffffffffffffff1916145b8061054d575061054c82610f2f565b5b9050919050565b60606000805461056390612550565b80601f016020809104026020016040519081016040528092919081815260200182805461058f90612550565b80156105dc5780601f106105b1576101008083540402835291602001916105dc565b820191906000526020600020905b8154815290600101906020018083116105bf57829003601f168201915b5050505050905090565b60006105f182610f99565b506105fb82611021565b9050919050565b610614828261060f61105e565b611066565b5050565b6000600754905081600a6000838152602001908152602001600020819055506007600081548092919061064a906125b0565b91905055506106593382611078565b807f882d3b5a729a8bb95cf6c0083c99b42ecd9637123d4425bd7b768877fd8af8b0836040516106899190612506565b60405180910390a25050565b600073ffffffffffffffffffffffffffffffffffffffff168273ffffffffffffffffffffffffffffffffffffffff16036107075760006040517f64a0ae920000000000000000000000000000000000000000000000000000000081526004016106fe9190611f9b565b60405180910390fd5b600061071b838361071661105e565b611096565b90508373ffffffffffffffffffffffffffffffffffffffff168173ffffffffffffffffffffffffffffffffffffffff1614610791578382826040517f64283d7b000000000000000000000000000000000000000000000000000000008152600401610788939291906125f8565b60405180910390fd5b50505050565b606060006040518060400160405280601a81526020017f646174613a696d6167652f7376672b786d6c3b6261736536342c000000000000815250905060006107de846112b0565b905081816040516020016107f392919061266b565b60405160208183030381529060405292505050919050565b61082683838360405180602001604052806000815250610aa1565b505050565b600061083682610f99565b9050919050565b6000600754905090565b60008073ffffffffffffffffffffffffffffffffffffffff168273ffffffffffffffffffffffffffffffffffffffff16036108ba5760006040517f89c62b640000000000000000000000000000000000000000000000000000000081526004016108b19190611f9b565b60405180910390fd5b600360008373ffffffffffffffffffffffffffffffffffffffff1673ffffffffffffffffffffffffffffffffffffffff168152602001908152602001600020549050919050565b610909611428565b61091360006114af565b565b60606009805461092490612550565b80601f016020809104026020016040519081016040528092919081815260200182805461095090612550565b801561099d5780601f106109725761010080835404028352916020019161099d565b820191906000526020600020905b81548152906001019060200180831161098057829003601f168201915b5050505050905090565b6000600660009054906101000a900473ffffffffffffffffffffffffffffffffffffffff16905090565b6060600180546109e090612550565b80601f0160208091040260200160405190810160405280929190818152602001828054610a0c90612550565b8015610a595780601f10610a2e57610100808354040283529160200191610a59565b820191906000526020600020905b815481529060010190602001808311610a3c57829003601f168201915b5050505050905090565b60007f0000000000000000000000000000000000000000000000000000000000000000905090565b610a9d610a9661105e565b8383611575565b5050565b610aac848484610695565b610ac0610ab761105e565b858585856116e4565b50505050565b6060600073ffffffffffffffffffffffffffffffffffffffff16610ae983611895565b73ffffffffffffffffffffffffffffffffffffffff1603610b36576040517fe0db819b00000000000000000000000000000000000000000000000000000000815260040160405180910390fd5b60007f000000000000000000000000000000000000000000000000000000000000000073ffffffffffffffffffffffffffffffffffffffff1663feaf968c6040518163ffffffff1660e01b815260040160a060405180830381865afa158015610ba3573d6000803e3d6000fd5b505050506040513d601f19601f82011682018060405250810190610bc791906126fb565b505050915050600060088054610bdc90612550565b80601f0160208091040260200160405190810160405280929190818152602001828054610c0890612550565b8015610c555780601f10610c2a57610100808354040283529160200191610c55565b820191906000526020600020905b815481529060010190602001808311610c3857829003601f168201915b50505050509050600a6000858152602001908152602001600020548212610d045760098054610c8390612550565b80601f0160208091040260200160405190810160405280929190818152602001828054610caf90612550565b8015610cfc5780601f10610cd157610100808354040283529160200191610cfc565b820191906000526020600020905b815481529060010190602001808311610cdf57829003601f168201915b505050505090505b610d0c6118d2565b610d3d610d17610554565b83604051602001610d2992919061293e565b6040516020818303038152906040526112b0565b604051602001610d4e92919061266b565b60405160208183030381529060405292505050919050565b6000600560008473ffffffffffffffffffffffffffffffffffffffff1673ffffffffffffffffffffffffffffffffffffffff16815260200190815260200160002060008373ffffffffffffffffffffffffffffffffffffffff1673ffffffffffffffffffffffffffffffffffffffff16815260200190815260200160002060009054906101000a900460ff16905092915050565b606060088054610e0990612550565b80601f0160208091040260200160405190810160405280929190818152602001828054610e3590612550565b8015610e825780601f10610e5757610100808354040283529160200191610e82565b820191906000526020600020905b815481529060010190602001808311610e6557829003601f168201915b5050505050905090565b6000600a6000838152602001908152602001600020549050919050565b610eb1611428565b600073ffffffffffffffffffffffffffffffffffffffff168173ffffffffffffffffffffffffffffffffffffffff1603610f235760006040517f1e4fbdf7000000000000000000000000000000000000000000000000000000008152600401610f1a9190611f9b565b60405180910390fd5b610f2c816114af565b50565b60007f01ffc9a7000000000000000000000000000000000000000000000000000000007bffffffffffffffffffffffffffffffffffffffffffffffffffffffff1916827bffffffffffffffffffffffffffffffffffffffffffffffffffffffff1916149050919050565b600080610fa583611895565b9050600073ffffffffffffffffffffffffffffffffffffffff168173ffffffffffffffffffffffffffffffffffffffff160361101857826040517f7e27328900000000000000000000000000000000000000000000000000000000815260040161100f9190612265565b60405180910390fd5b80915050919050565b60006004600083815260200190815260200160002060009054906101000a900473ffffffffffffffffffffffffffffffffffffffff169050919050565b600033905090565b611073838383600161190f565b505050565b611092828260405180602001604052806000815250611ad4565b5050565b6000806110a284611895565b9050600073ffffffffffffffffffffffffffffffffffffffff168373ffffffffffffffffffffffffffffffffffffffff16146110e4576110e3818486611af8565b5b600073ffffffffffffffffffffffffffffffffffffffff168173ffffffffffffffffffffffffffffffffffffffff16146111755761112660008560008061190f565b6001600360008373ffffffffffffffffffffffffffffffffffffffff1673ffffffffffffffffffffffffffffffffffffffff168152602001908152602001600020600082825403925050819055505b600073ffffffffffffffffffffffffffffffffffffffff168573ffffffffffffffffffffffffffffffffffffffff16146111f8576001600360008773ffffffffffffffffffffffffffffffffffffffff1673ffffffffffffffffffffffffffffffffffffffff168152602001908152602001600020600082825401925050819055505b846002600086815260200190815260200160002060006101000a81548173ffffffffffffffffffffffffffffffffffffffff021916908373ffffffffffffffffffffffffffffffffffffffff160217905550838573ffffffffffffffffffffffffffffffffffffffff168273ffffffffffffffffffffffffffffffffffffffff167fddf252ad1be2c89b69c2b068fc378daa952ba7f163c4a11628f55a4df523b3ef60405160405180910390a4809150509392505050565b606060008251036112d257604051806020016040528060008152509050611423565b6000604051806060016040528060408152602001612b716040913990506000600360028551611301919061298e565b61130b91906129f1565b60046113179190612a22565b90506000602082611328919061298e565b67ffffffffffffffff811115611341576113406120e2565b5b6040519080825280601f01601f1916602001820160405280156113735781602001600182028036833780820191505090505b509050818152600183018586518101602084015b818310156113e2576003830192508251603f8160121c168501518253600182019150603f81600c1c168501518253600182019150603f8160061c168501518253600182019150603f8116850151825360018201915050611387565b6003895106600181146113fc576002811461140c57611417565b613d3d60f01b6002830352611417565b603d60f81b60018303525b50505050508093505050505b919050565b61143061105e565b73ffffffffffffffffffffffffffffffffffffffff1661144e6109a7565b73ffffffffffffffffffffffffffffffffffffffff16146114ad5761147161105e565b6040517f118cdaa70000000000000000000000000000000000000000000000000000000081526004016114a49190611f9b565b60405180910390fd5b565b6000600660009054906101000a900473ffffffffffffffffffffffffffffffffffffffff16905081600660006101000a81548173ffffffffffffffffffffffffffffffffffffffff021916908373ffffffffffffffffffffffffffffffffffffffff1602179055508173ffffffffffffffffffffffffffffffffffffffff168173ffffffffffffffffffffffffffffffffffffffff167f8be0079c531659141344cd1fd0a4f28419497f9722a3daafe3b4186f6b6457e060405160405180910390a35050565b600073ffffffffffffffffffffffffffffffffffffffff168273ffffffffffffffffffffffffffffffffffffffff16036115e657816040517f5b08ba180000000000000000000000000000000000000000000000000000000081526004016115dd9190611f9b565b60405180910390fd5b80600560008573ffffffffffffffffffffffffffffffffffffffff1673ffffffffffffffffffffffffffffffffffffffff16815260200190815260200160002060008473ffffffffffffffffffffffffffffffffffffffff1673ffffffffffffffffffffffffffffffffffffffff16815260200190815260200160002060006101000a81548160ff0219169083151502179055508173ffffffffffffffffffffffffffffffffffffffff168373ffffffffffffffffffffffffffffffffffffffff167f17307eab39ab6107e8899845ad3d59bd9653f200f220920489ca2b5937696c31836040516116d79190611e2a565b60405180910390a3505050565b60008373ffffffffffffffffffffffffffffffffffffffff163b111561188e578273ffffffffffffffffffffffffffffffffffffffff1663150b7a02868685856040518563ffffffff1660e01b81526004016117439493929190612ab9565b6020604051808303816000875af192505050801561177f57506040513d601f19601f8201168201806040525081019061177c9190612b1a565b60015b611803573d80600081146117af576040519150601f19603f3d011682016040523d82523d6000602084013e6117b4565b606091505b5060008151036117fb57836040517f64a0ae920000000000000000000000000000000000000000000000000000000081526004016117f29190611f9b565b60405180910390fd5b805160208201fd5b63150b7a0260e01b7bffffffffffffffffffffffffffffffffffffffffffffffffffffffff1916817bffffffffffffffffffffffffffffffffffffffffffffffffffffffff19161461188c57836040517f64a0ae920000000000000000000000000000000000000000000000000000000081526004016118839190611f9b565b60405180910390fd5b505b5050505050565b60006002600083815260200190815260200160002060009054906101000a900473ffffffffffffffffffffffffffffffffffffffff169050919050565b60606040518060400160405280601d81526020017f646174613a6170706c69636174696f6e2f6a736f6e3b6261736536342c000000815250905090565b80806119485750600073ffffffffffffffffffffffffffffffffffffffff168273ffffffffffffffffffffffffffffffffffffffff1614155b15611a7c57600061195884610f99565b9050600073ffffffffffffffffffffffffffffffffffffffff168373ffffffffffffffffffffffffffffffffffffffff16141580156119c357508273ffffffffffffffffffffffffffffffffffffffff168173ffffffffffffffffffffffffffffffffffffffff1614155b80156119d657506119d48184610d66565b155b15611a1857826040517fa9fbf51f000000000000000000000000000000000000000000000000000000008152600401611a0f9190611f9b565b60405180910390fd5b8115611a7a57838573ffffffffffffffffffffffffffffffffffffffff168273ffffffffffffffffffffffffffffffffffffffff167f8c5be1e5ebec7d5bd14f71427d1e84f3dd0314c0f7b2291e5b200ac8c7c3b92560405160405180910390a45b505b836004600085815260200190815260200160002060006101000a81548173ffffffffffffffffffffffffffffffffffffffff021916908373ffffffffffffffffffffffffffffffffffffffff16021790555050505050565b611ade8383611bbc565b611af3611ae961105e565b60008585856116e4565b505050565b611b03838383611cb5565b611bb757600073ffffffffffffffffffffffffffffffffffffffff168373ffffffffffffffffffffffffffffffffffffffff1603611b7857806040517f7e273289000000000000000000000000000000000000000000000000000000008152600401611b6f9190612265565b60405180910390fd5b81816040517f177e802f000000000000000000000000000000000000000000000000000000008152600401611bae929190612b47565b60405180910390fd5b505050565b600073ffffffffffffffffffffffffffffffffffffffff168273ffffffffffffffffffffffffffffffffffffffff1603611c2e5760006040517f64a0ae92000000000000000000000000000000000000000000000000000000008152600401611c259190611f9b565b60405180910390fd5b6000611c3c83836000611096565b9050600073ffffffffffffffffffffffffffffffffffffffff168173ffffffffffffffffffffffffffffffffffffffff1614611cb05760006040517f73c6ac6e000000000000000000000000000000000000000000000000000000008152600401611ca79190611f9b565b60405180910390fd5b505050565b60008073ffffffffffffffffffffffffffffffffffffffff168373ffffffffffffffffffffffffffffffffffffffff1614158015611d6d57508273ffffffffffffffffffffffffffffffffffffffff168473ffffffffffffffffffffffffffffffffffffffff161480611d2e5750611d2d8484610d66565b5b80611d6c57508273ffffffffffffffffffffffffffffffffffffffff16611d5483611021565b73ffffffffffffffffffffffffffffffffffffffff16145b5b90509392505050565b6000604051905090565b600080fd5b600080fd5b60007fffffffff0000000000000000000000000000000000000000000000000000000082169050919050565b611dbf81611d8a565b8114611dca57600080fd5b50565b600081359050611ddc81611db6565b92915050565b600060208284031215611df857611df7611d80565b5b6000611e0684828501611dcd565b91505092915050565b60008115159050919050565b611e2481611e0f565b82525050565b6000602082019050611e3f6000830184611e1b565b92915050565b600081519050919050565b600082825260208201905092915050565b60005b83811015611e7f578082015181840152602081019050611e64565b60008484015250505050565b6000601f19601f8301169050919050565b6000611ea782611e45565b611eb18185611e50565b9350611ec1818560208601611e61565b611eca81611e8b565b840191505092915050565b60006020820190508181036000830152611eef8184611e9c565b905092915050565b6000819050919050565b611f0a81611ef7565b8114611f1557600080fd5b50565b600081359050611f2781611f01565b92915050565b600060208284031215611f4357611f42611d80565b5b6000611f5184828501611f18565b91505092915050565b600073ffffffffffffffffffffffffffffffffffffffff82169050919050565b6000611f8582611f5a565b9050919050565b611f9581611f7a565b82525050565b6000602082019050611fb06000830184611f8c565b92915050565b611fbf81611f7a565b8114611fca57600080fd5b50565b600081359050611fdc81611fb6565b92915050565b60008060408385031215611ff957611ff8611d80565b5b600061200785828601611fcd565b925050602061201885828601611f18565b9150509250929050565b6000819050919050565b61203581612022565b811461204057600080fd5b50565b6000813590506120528161202c565b92915050565b60006020828403121561206e5761206d611d80565b5b600061207c84828501612043565b91505092915050565b60008060006060848603121561209e5761209d611d80565b5b60006120ac86828701611fcd565b93505060206120bd86828701611fcd565b92505060406120ce86828701611f18565b9150509250925092565b600080fd5b600080fd5b7f4e487b7100000000000000000000000000000000000000000000000000000000600052604160045260246000fd5b61211a82611e8b565b810181811067ffffffffffffffff82111715612139576121386120e2565b5b80604052505050565b600061214c611d76565b90506121588282612111565b919050565b600067ffffffffffffffff821115612178576121776120e2565b5b61218182611e8b565b9050602081019050919050565b82818337600083830152505050565b60006121b06121ab8461215d565b612142565b9050828152602081018484840111156121cc576121cb6120dd565b5b6121d784828561218e565b509392505050565b600082601f8301126121f4576121f36120d8565b5b813561220484826020860161219d565b91505092915050565b60006020828403121561222357612222611d80565b5b600082013567ffffffffffffffff81111561224157612240611d85565b5b61224d848285016121df565b91505092915050565b61225f81611ef7565b82525050565b600060208201905061227a6000830184612256565b92915050565b60006020828403121561229657612295611d80565b5b60006122a484828501611fcd565b91505092915050565b6000819050919050565b60006122d26122cd6122c884611f5a565b6122ad565b611f5a565b9050919050565b60006122e4826122b7565b9050919050565b60006122f6826122d9565b9050919050565b612306816122eb565b82525050565b600060208201905061232160008301846122fd565b92915050565b61233081611e0f565b811461233b57600080fd5b50565b60008135905061234d81612327565b92915050565b6000806040838503121561236a57612369611d80565b5b600061237885828601611fcd565b92505060206123898582860161233e565b9150509250929050565b600067ffffffffffffffff8211156123ae576123ad6120e2565b5b6123b782611e8b565b9050602081019050919050565b60006123d76123d284612393565b612142565b9050828152602081018484840111156123f3576123f26120dd565b5b6123fe84828561218e565b509392505050565b600082601f83011261241b5761241a6120d8565b5b813561242b8482602086016123c4565b91505092915050565b6000806000806080858703121561244e5761244d611d80565b5b600061245c87828801611fcd565b945050602061246d87828801611fcd565b935050604061247e87828801611f18565b925050606085013567ffffffffffffffff81111561249f5761249e611d85565b5b6124ab87828801612406565b91505092959194509250565b600080604083850312156124ce576124cd611d80565b5b60006124dc85828601611fcd565b92505060206124ed85828601611fcd565b9150509250929050565b61250081612022565b82525050565b600060208201905061251b60008301846124f7565b92915050565b7f4e487b7100000000000000000000000000000000000000000000000000000000600052602260045260246000fd5b6000600282049050600182168061256857607f821691505b60208210810361257b5761257a612521565b5b50919050565b7f4e487b7100000000000000000000000000000000000000000000000000000000600052601160045260246000fd5b60006125bb82611ef7565b91507fffffffffffffffffffffffffffffffffffffffffffffffffffffffffffffffff82036125ed576125ec612581565b5b600182019050919050565b600060608201905061260d6000830186611f8c565b61261a6020830185612256565b6126276040830184611f8c565b949350505050565b600081905092915050565b600061264582611e45565b61264f818561262f565b935061265f818560208601611e61565b80840191505092915050565b6000612677828561263a565b9150612683828461263a565b91508190509392505050565b600069ffffffffffffffffffff82169050919050565b6126ae8161268f565b81146126b957600080fd5b50565b6000815190506126cb816126a5565b92915050565b6000815190506126e08161202c565b92915050565b6000815190506126f581611f01565b92915050565b600080600080600060a0868803121561271757612716611d80565b5b6000612725888289016126bc565b9550506020612736888289016126d1565b9450506040612747888289016126e6565b9350506060612758888289016126e6565b9250506080612769888289016126bc565b9150509295509295909350565b7f7b226e616d65223a220000000000000000000000000000000000000000000000600082015250565b60006127ac60098361262f565b91506127b782612776565b600982019050919050565b7f222c20226465736372697074696f6e223a22416e204e4654207468617420636860008201527f616e676573206261736564206f6e2074686520436861696e6c696e6b2046656560208201527f64222c2000000000000000000000000000000000000000000000000000000000604082015250565b600061284460448361262f565b915061284f826127c2565b604482019050919050565b7f2261747472696275746573223a205b7b2274726169745f74797065223a20226360008201527f6f6f6c6e657373222c202276616c7565223a203130307d5d2c2022696d61676560208201527f223a220000000000000000000000000000000000000000000000000000000000604082015250565b60006128dc60438361262f565b91506128e78261285a565b604382019050919050565b7f227d000000000000000000000000000000000000000000000000000000000000600082015250565b600061292860028361262f565b9150612933826128f2565b600282019050919050565b60006129498261279f565b9150612955828561263a565b915061296082612837565b915061296b826128cf565b9150612977828461263a565b91506129828261291b565b91508190509392505050565b600061299982611ef7565b91506129a483611ef7565b92508282019050808211156129bc576129bb612581565b5b92915050565b7f4e487b7100000000000000000000000000000000000000000000000000000000600052601260045260246000fd5b60006129fc82611ef7565b9150612a0783611ef7565b925082612a1757612a166129c2565b5b828204905092915050565b6000612a2d82611ef7565b9150612a3883611ef7565b9250828202612a4681611ef7565b91508282048414831517612a5d57612a5c612581565b5b5092915050565b600081519050919050565b600082825260208201905092915050565b6000612a8b82612a64565b612a958185612a6f565b9350612aa5818560208601611e61565b612aae81611e8b565b840191505092915050565b6000608082019050612ace6000830187611f8c565b612adb6020830186611f8c565b612ae86040830185612256565b8181036060830152612afa8184612a80565b905095945050505050565b600081519050612b1481611db6565b92915050565b600060208284031215612b3057612b2f611d80565b5b6000612b3e84828501612b05565b91505092915050565b6000604082019050612b5c6000830185611f8c565b612b696020830184612256565b939250505056fe4142434445464748494a4b4c4d4e4f505152535455565758595a6162636465666768696a6b6c6d6e6f707172737475767778797a303132333435363738392b2fa26469706673582212202fd412e49ed439fa4bafdaa9affd64221275d93e2b1e8995a9f5ba409acdfcc164736f6c634300081c00334142434445464748494a4b4c4d4e4f505152535455565758595a6162636465666768696a6b6c6d6e6f707172737475767778797a303132333435363738392b2f",
  "linkReferences": {},
  "deployedLinkReferences": {}
}