{
  "_format": "hh-sol-artifact-1",
  "contractName": "RandomIpfsNft",
  "sourceName": "contracts/RandomIpfsNft.sol",
  "abi": [
    {
      "inputs": [
        {
          "internalType": "address",
          "name": "coordinatorV2_5",
          "type": "address"
        },
        {
          "internalType": "bytes32",
          "name": "keyHash",
          "type": "bytes32"
        },
        {
          "internalType": "uint256",
          "name": "subscriptionId",
          "type": "uint256"
        },
        {
          "internalType": "uint32",
          "name": "callbackGasLimit",
          "type": "uint32"
        },
        {
          "internalType": "string[3]",
          "name": "dogTokenUris",
          "type": "string[3]"
        },
        {
          "internalType": "uint256",
          "name": "mintFee",
          "type": "uint256"
        }
      ],
      "stateMutability": "nonpayable",
      "type": "constructor"
    },
    {
      "inputs": [
        {
          "internalType": "address",
          "name": "sender",
          "type": "address"
        },
        {
          "internalType": "uint256",
          "name": "tokenId",
          "type": "uint256"
        },
        {
          "internalType": "address",
          "name": "owner",
          "type": "address"
        }
      ],
      "name": "ERC721IncorrectOwner",
      "type": "error"
    },
    {
      "inputs": [
        {
          "internalType": "address",
          "name": "operator",
          "type": "address"
        },
        {
          "internalType": "uint256",
          "name": "tokenId",
          "type": "uint256"
        }
      ],
      "name": "ERC721InsufficientApproval",
      "type": "error"
    },
    {
      "inputs": [
        {
          "internalType": "address",
          "name": "approver",
          "type": "address"
        }
      ],
      "name": "ERC721InvalidApprover",
      "type": "error"
    },
    {
      "inputs": [
        {
          "internalType": "address",
          "name": "operator",
          "type": "address"
        }
      ],
      "name": "ERC721InvalidOperator",
      "type": "error"
    },
    {
      "inputs": [
        {
          "internalType": "address",
          "name": "owner",
          "type": "address"
        }
      ],
      "name": "ERC721InvalidOwner",
      "type": "error"
    },
    {
      "inputs": [
        {
          "internalType": "address",
          "name": "receiver",
          "type": "address"
        }
      ],
      "name": "ERC721InvalidReceiver",
      "type": "error"
    },
    {
      "inputs": [
        {
          "internalType": "address",
          "name": "sender",
          "type": "address"
        }
      ],
      "name": "ERC721InvalidSender",
      "type": "error"
    },
    {
      "inputs": [
        {
          "internalType": "uint256",
          "name": "tokenId",
          "type": "uint256"
        }
      ],
      "name": "ERC721NonexistentToken",
      "type": "error"
    },
    {
      "inputs": [
        {
          "internalType": "address",
          "name": "have",
          "type": "address"
        },
        {
          "internalType": "address",
          "name": "want",
          "type": "address"
        }
      ],
      "name": "OnlyCoordinatorCanFulfill",
      "type": "error"
    },
    {
      "inputs": [
        {
          "internalType": "address",
          "name": "have",
          "type": "address"
        },
        {
          "internalType": "address",
          "name": "owner",
          "type": "address"
        },
        {
          "internalType": "address",
          "name": "coordinator",
          "type": "address"
        }
      ],
      "name": "OnlyOwnerOrCoordinator",
      "type": "error"
    },
    {
      "inputs": [],
      "name": "RandomIpfsNft__AlreadyInitialized",
      "type": "error"
    },
    {
      "inputs": [],
      "name": "RandomIpfsNft__NeedMoreETHSent",
      "type": "error"
    },
    {
      "inputs": [],
      "name": "RandomIpfsNft__RangeOutOfBounds",
      "type": "error"
    },
    {
      "inputs": [],
      "name": "RandomIpfsNft__TransferFailed",
      "type": "error"
    },
    {
      "inputs": [],
      "name": "ZeroAddress",
      "type": "error"
    },
    {
      "anonymous": false,
      "inputs": [
        {
          "indexed": true,
          "internalType": "address",
          "name": "owner",
          "type": "address"
        },
        {
          "indexed": true,
          "internalType": "address",
          "name": "approved",
          "type": "address"
        },
        {
          "indexed": true,
          "internalType": "uint256",
          "name": "tokenId",
          "type": "uint256"
        }
      ],
      "name": "Approval",
      "type": "event"
    },
    {
      "anonymous": false,
      "inputs": [
        {
          "indexed": true,
          "internalType": "address",
          "name": "owner",
          "type": "address"
        },
        {
          "indexed": true,
          "internalType": "address",
          "name": "operator",
          "type": "address"
        },
        {
          "indexed": false,
          "internalType": "bool",
          "name": "approved",
          "type": "bool"
        }
      ],
      "name": "ApprovalForAll",
      "type": "event"
    },
    {
      "anonymous": false,
      "inputs": [
        {
          "indexed": false,
          "internalType": "uint256",
          "name": "_fromTokenId",
          "type": "uint256"
        },
        {
          "indexed": false,
          "internalType": "uint256",
          "name": "_toTokenId",
          "type": "uint256"
        }
      ],
      "name": "BatchMetadataUpdate",
      "type": "event"
    },
    {
      "anonymous": false,
      "inputs": [
        {
          "indexed": false,
          "internalType": "address",
          "name": "vrfCoordinator",
          "type": "address"
        }
      ],
      "name": "CoordinatorSet",
      "type": "event"
    },
    {
      "anonymous": false,
      "inputs": [
        {
          "indexed": false,
          "internalType": "uint256",
          "name": "_tokenId",
          "type": "uint256"
        }
      ],
      "name": "MetadataUpdate",
      "type": "event"
    },
    {
      "anonymous": false,
      "inputs": [
        {
          "indexed": true,
          "internalType": "uint256",
          "name": "tokenId",
          "type": "uint256"
        },
        {
          "indexed": true,
          "internalType": "enum RandomIpfsNft.Breed",
          "name": "breed",
          "type": "uint8"
        },
        {
          "indexed": true,
          "internalType": "address",
          "name": "minter",
          "type": "address"
        }
      ],
      "name": "NftMinted",
      "type": "event"
    },
    {
      "anonymous": false,
      "inputs": [
        {
          "indexed": true,
          "internalType": "uint256",
          "name": "requestId",
          "type": "uint256"
        },
        {
          "indexed": true,
          "internalType": "address",
          "name": "requester",
          "type": "address"
        }
      ],
      "name": "NftRequested",
      "type": "event"
    },
    {
      "anonymous": false,
      "inputs": [
        {
          "indexed": true,
          "internalType": "address",
          "name": "from",
          "type": "address"
        },
        {
          "indexed": true,
          "internalType": "address",
          "name": "to",
          "type": "address"
        }
      ],
      "name": "OwnershipTransferRequested",
      "type": "event"
    },
    {
      "anonymous": false,
      "inputs": [
        {
          "indexed": true,
          "internalType": "address",
          "name": "from",
          "type": "address"
        },
        {
          "indexed": true,
          "internalType": "address",
          "name": "to",
          "type": "address"
        }
      ],
      "name": "OwnershipTransferred",
      "type": "event"
    },
    {
      "anonymous": false,
      "inputs": [
        {
          "indexed": true,
          "internalType": "address",
          "name": "from",
          "type": "address"
        },
        {
          "indexed": true,
          "internalType": "address",
          "name": "to",
          "type": "address"
        },
        {
          "indexed": true,
          "internalType": "uint256",
          "name": "tokenId",
          "type": "uint256"
        }
      ],
      "name": "Transfer",
      "type": "event"
    },
    {
      "inputs": [],
      "name": "acceptOwnership",
      "outputs": [],
      "stateMutability": "nonpayable",
      "type": "function"
    },
    {
      "inputs": [
        {
          "internalType": "address",
          "name": "to",
          "type": "address"
        },
        {
          "internalType": "uint256",
          "name": "tokenId",
          "type": "uint256"
        }
      ],
      "name": "approve",
      "outputs": [],
      "stateMutability": "nonpayable",
      "type": "function"
    },
    {
      "inputs": [
        {
          "internalType": "address",
          "name": "owner",
          "type": "address"
        }
      ],
      "name": "balanceOf",
      "outputs": [
        {
          "internalType": "uint256",
          "name": "",
          "type": "uint256"
        }
      ],
      "stateMutability": "view",
      "type": "function"
    },
    {
      "inputs": [
        {
          "internalType": "uint256",
          "name": "tokenId",
          "type": "uint256"
        }
      ],
      "name": "getApproved",
      "outputs": [
        {
          "internalType": "address",
          "name": "",
          "type": "address"
        }
      ],
      "stateMutability": "view",
      "type": "function"
    },
    {
      "inputs": [
        {
          "internalType": "uint256",
          "name": "moddedRng",
          "type": "uint256"
        }
      ],
      "name": "getBreedFromModdedRng",
      "outputs": [
        {
          "internalType": "enum RandomIpfsNft.Breed",
          "name": "",
          "type": "uint8"
        }
      ],
      "stateMutability": "pure",
      "type": "function"
    },
    {
      "inputs": [],
      "name": "getChanceArray",
      "outputs": [
        {
          "internalType": "uint256[3]",
          "name": "",
          "type": "uint256[3]"
        }
      ],
      "stateMutability": "pure",
      "type": "function"
    },
    {
      "inputs": [
        {
          "internalType": "uint256",
          "name": "index",
          "type": "uint256"
        }
      ],
      "name": "getDogTokenUris",
      "outputs": [
        {
          "internalType": "string",
          "name": "",
          "type": "string"
        }
      ],
      "stateMutability": "view",
      "type": "function"
    },
    {
      "inputs": [],
      "name": "getMintFee",
      "outputs": [
        {
          "internalType": "uint256",
          "name": "",
          "type": "uint256"
        }
      ],
      "stateMutability": "view",
      "type": "function"
    },
    {
      "inputs": [],
      "name": "getTokenCounter",
      "outputs": [
        {
          "internalType": "uint256",
          "name": "",
          "type": "uint256"
        }
      ],
      "stateMutability": "view",
      "type": "function"
    },
    {
      "inputs": [
        {
          "internalType": "address",
          "name": "owner",
          "type": "address"
        },
        {
          "internalType": "address",
          "name": "operator",
          "type": "address"
        }
      ],
      "name": "isApprovedForAll",
      "outputs": [
        {
          "internalType": "bool",
          "name": "",
          "type": "bool"
        }
      ],
      "stateMutability": "view",
      "type": "function"
    },
    {
      "inputs": [],
      "name": "name",
      "outputs": [
        {
          "internalType": "string",
          "name": "",
          "type": "string"
        }
      ],
      "stateMutability": "view",
      "type": "function"
    },
    {
      "inputs": [],
      "name": "owner",
      "outputs": [
        {
          "internalType": "address",
          "name": "",
          "type": "address"
        }
      ],
      "stateMutability": "view",
      "type": "function"
    },
    {
      "inputs": [
        {
          "internalType": "uint256",
          "name": "tokenId",
          "type": "uint256"
        }
      ],
      "name": "ownerOf",
      "outputs": [
        {
          "internalType": "address",
          "name": "",
          "type": "address"
        }
      ],
      "stateMutability": "view",
      "type": "function"
    },
    {
      "inputs": [
        {
          "internalType": "uint256",
          "name": "requestId",
          "type": "uint256"
        },
        {
          "internalType": "uint256[]",
          "name": "randomWords",
          "type": "uint256[]"
        }
      ],
      "name": "rawFulfillRandomWords",
      "outputs": [],
      "stateMutability": "nonpayable",
      "type": "function"
    },
    {
      "inputs": [],
      "name": "requestNft",
      "outputs": [
        {
          "internalType": "uint256",
          "name": "requestId",
          "type": "uint256"
        }
      ],
      "stateMutability": "payable",
      "type": "function"
    },
    {
      "inputs": [
        {
          "internalType": "uint256",
          "name": "",
          "type": "uint256"
        }
      ],
      "name": "s_requestIdToSender",
      "outputs": [
        {
          "internalType": "address",
          "name": "",
          "type": "address"
        }
      ],
      "stateMutability": "view",
      "type": "function"
    },
    {
      "inputs": [],
      "name": "s_vrfCoordinator",
      "outputs": [
        {
          "internalType": "contract IVRFCoordinatorV2Plus",
          "name": "",
          "type": "address"
        }
      ],
      "stateMutability": "view",
      "type": "function"
    },
    {
      "inputs": [
        {
          "internalType": "address",
          "name": "from",
          "type": "address"
        },
        {
          "internalType": "address",
          "name": "to",
          "type": "address"
        },
        {
          "internalType": "uint256",
          "name": "tokenId",
          "type": "uint256"
        }
      ],
      "name": "safeTransferFrom",
      "outputs": [],
      "stateMutability": "nonpayable",
      "type": "function"
    },
    {
      "inputs": [
        {
          "internalType": "address",
          "name": "from",
          "type": "address"
        },
        {
          "internalType": "address",
          "name": "to",
          "type": "address"
        },
        {
          "internalType": "uint256",
          "name": "tokenId",
          "type": "uint256"
        },
        {
          "internalType": "bytes",
          "name": "data",
          "type": "bytes"
        }
      ],
      "name": "safeTransferFrom",
      "outputs": [],
      "stateMutability": "nonpayable",
      "type": "function"
    },
    {
      "inputs": [
        {
          "internalType": "address",
          "name": "operator",
          "type": "address"
        },
        {
          "internalType": "bool",
          "name": "approved",
          "type": "bool"
        }
      ],
      "name": "setApprovalForAll",
      "outputs": [],
      "stateMutability": "nonpayable",
      "type": "function"
    },
    {
      "inputs": [
        {
          "internalType": "address",
          "name": "_vrfCoordinator",
          "type": "address"
        }
      ],
      "name": "setCoordinator",
      "outputs": [],
      "stateMutability": "nonpayable",
      "type": "function"
    },
    {
      "inputs": [
        {
          "internalType": "bytes4",
          "name": "interfaceId",
          "type": "bytes4"
        }
      ],
      "name": "supportsInterface",
      "outputs": [
        {
          "internalType": "bool",
          "name": "",
          "type": "bool"
        }
      ],
      "stateMutability": "view",
      "type": "function"
    },
    {
      "inputs": [],
      "name": "symbol",
      "outputs": [
        {
          "internalType": "string",
          "name": "",
          "type": "string"
        }
      ],
      "stateMutability": "view",
      "type": "function"
    },
    {
      "inputs": [
        {
          "internalType": "uint256",
          "name": "tokenId",
          "type": "uint256"
        }
      ],
      "name": "tokenURI",
      "outputs": [
        {
          "internalType": "string",
          "name": "",
          "type": "string"
        }
      ],
      "stateMutability": "view",
      "type": "function"
    },
    {
      "inputs": [
        {
          "internalType": "address",
          "name": "from",
          "type": "address"
        },
        {
          "internalType": "address",
          "name": "to",
          "type": "address"
        },
        {
          "internalType": "uint256",
          "name": "tokenId",
          "type": "uint256"
        }
      ],
      "name": "transferFrom",
      "outputs": [],
      "stateMutability": "nonpayable",
      "type": "function"
    },
    {
      "inputs": [
        {
          "internalType": "address",
          "name": "to",
          "type": "address"
        }
      ],
      "name": "transferOwnership",
      "outputs": [],
      "stateMutability": "nonpayable",
      "type": "function"
    },
    {
      "inputs": [],
      "name": "withdraw",
      "outputs": [],
      "stateMutability": "nonpayable",
      "type": "function"
    }
  ],
  "bytecode": "0x61014060405234801561001157600080fd5b50604051614910380380614910833981810160405281019061003391906108b6565b85338060006040518060400160405280600f81526020017f52616e646f6d2049504653204e465400000000000000000000000000000000008152506040518060400160405280600381526020017f52494e000000000000000000000000000000000000000000000000000000000081525081600090816100b39190610b76565b5080600190816100c39190610b76565b505050600073ffffffffffffffffffffffffffffffffffffffff168273ffffffffffffffffffffffffffffffffffffffff1603610135576040517f08c379a000000000000000000000000000000000000000000000000000000000815260040161012c90610ca5565b60405180910390fd5b81600760006101000a81548173ffffffffffffffffffffffffffffffffffffffff021916908373ffffffffffffffffffffffffffffffffffffffff160217905550600073ffffffffffffffffffffffffffffffffffffffff168173ffffffffffffffffffffffffffffffffffffffff16146101ba576101b9816102e860201b60201c565b5b505050600073ffffffffffffffffffffffffffffffffffffffff168173ffffffffffffffffffffffffffffffffffffffff1603610223576040517fd92e233d00000000000000000000000000000000000000000000000000000000815260040160405180910390fd5b80600960006101000a81548173ffffffffffffffffffffffffffffffffffffffff021916908373ffffffffffffffffffffffffffffffffffffffff160217905550508573ffffffffffffffffffffffffffffffffffffffff1660808173ffffffffffffffffffffffffffffffffffffffff16815250508460a081815250508360c081815250508263ffffffff1660e08163ffffffff16815250508061012081815250506000600a819055506102dd8261041660201b60201c565b505050505050610d31565b3373ffffffffffffffffffffffffffffffffffffffff168173ffffffffffffffffffffffffffffffffffffffff1603610356576040517f08c379a000000000000000000000000000000000000000000000000000000000815260040161034d90610d11565b60405180910390fd5b80600860006101000a81548173ffffffffffffffffffffffffffffffffffffffff021916908373ffffffffffffffffffffffffffffffffffffffff1602179055508073ffffffffffffffffffffffffffffffffffffffff16600760009054906101000a900473ffffffffffffffffffffffffffffffffffffffff1673ffffffffffffffffffffffffffffffffffffffff167fed8889f560326eb138920d842192f0eb3dd22b4f139c87a2c57538e05bae127860405160405180910390a350565b600c60009054906101000a900460ff161561045d576040517fddf8bf7000000000000000000000000000000000000000000000000000000000815260040160405180910390fd5b80600b90600361046e92919061048d565b506001600c60006101000a81548160ff02191690831515021790555050565b8280548282559060005260206000209081019282156104d5579160200282015b828111156104d45782518290816104c49190610b76565b50916020019190600101906104ad565b5b5090506104e291906104e6565b5090565b5b8082111561050657600081816104fd919061050a565b506001016104e7565b5090565b50805461051690610999565b6000825580601f106105285750610547565b601f016020900490600052602060002090810190610546919061054a565b5b50565b5b8082111561056357600081600090555060010161054b565b5090565b6000604051905090565b600080fd5b600080fd5b600073ffffffffffffffffffffffffffffffffffffffff82169050919050565b60006105a68261057b565b9050919050565b6105b68161059b565b81146105c157600080fd5b50565b6000815190506105d3816105ad565b92915050565b6000819050919050565b6105ec816105d9565b81146105f757600080fd5b50565b600081519050610609816105e3565b92915050565b6000819050919050565b6106228161060f565b811461062d57600080fd5b50565b60008151905061063f81610619565b92915050565b600063ffffffff82169050919050565b61065e81610645565b811461066957600080fd5b50565b60008151905061067b81610655565b92915050565b600080fd5b6000601f19601f8301169050919050565b7f4e487b7100000000000000000000000000000000000000000000000000000000600052604160045260246000fd5b6106cf82610686565b810181811067ffffffffffffffff821117156106ee576106ed610697565b5b80604052505050565b6000610701610567565b905061070d82826106c6565b919050565b600067ffffffffffffffff82111561072d5761072c610697565b5b602082029050919050565b600080fd5b600080fd5b600067ffffffffffffffff82111561075d5761075c610697565b5b61076682610686565b9050602081019050919050565b60005b83811015610791578082015181840152602081019050610776565b60008484015250505050565b60006107b06107ab84610742565b6106f7565b9050828152602081018484840111156107cc576107cb61073d565b5b6107d7848285610773565b509392505050565b600082601f8301126107f4576107f3610681565b5b815161080484826020860161079d565b91505092915050565b600061082061081b84610712565b6106f7565b9050806020840283018581111561083a57610839610738565b5b835b8181101561088157805167ffffffffffffffff81111561085f5761085e610681565b5b80860161086c89826107df565b8552602085019450505060208101905061083c565b5050509392505050565b600082601f8301126108a05761089f610681565b5b60036108ad84828561080d565b91505092915050565b60008060008060008060c087890312156108d3576108d2610571565b5b60006108e189828a016105c4565b96505060206108f289828a016105fa565b955050604061090389828a01610630565b945050606061091489828a0161066c565b935050608087015167ffffffffffffffff81111561093557610934610576565b5b61094189828a0161088b565b92505060a061095289828a01610630565b9150509295509295509295565b600081519050919050565b7f4e487b7100000000000000000000000000000000000000000000000000000000600052602260045260246000fd5b600060028204905060018216806109b157607f821691505b6020821081036109c4576109c361096a565b5b50919050565b60008190508160005260206000209050919050565b60006020601f8301049050919050565b600082821b905092915050565b600060088302610a2c7fffffffffffffffffffffffffffffffffffffffffffffffffffffffffffffffff826109ef565b610a3686836109ef565b95508019841693508086168417925050509392505050565b6000819050919050565b6000610a73610a6e610a698461060f565b610a4e565b61060f565b9050919050565b6000819050919050565b610a8d83610a58565b610aa1610a9982610a7a565b8484546109fc565b825550505050565b600090565b610ab6610aa9565b610ac1818484610a84565b505050565b5b81811015610ae557610ada600082610aae565b600181019050610ac7565b5050565b601f821115610b2a57610afb816109ca565b610b04846109df565b81016020851015610b13578190505b610b27610b1f856109df565b830182610ac6565b50505b505050565b600082821c905092915050565b6000610b4d60001984600802610b2f565b1980831691505092915050565b6000610b668383610b3c565b9150826002028217905092915050565b610b7f8261095f565b67ffffffffffffffff811115610b9857610b97610697565b5b610ba28254610999565b610bad828285610ae9565b600060209050601f831160018114610be05760008415610bce578287015190505b610bd88582610b5a565b865550610c40565b601f198416610bee866109ca565b60005b82811015610c1657848901518255600182019150602085019450602081019050610bf1565b86831015610c335784890151610c2f601f891682610b3c565b8355505b6001600288020188555050505b505050505050565b600082825260208201905092915050565b7f43616e6e6f7420736574206f776e657220746f207a65726f0000000000000000600082015250565b6000610c8f601883610c48565b9150610c9a82610c59565b602082019050919050565b60006020820190508181036000830152610cbe81610c82565b9050919050565b7f43616e6e6f74207472616e7366657220746f2073656c66000000000000000000600082015250565b6000610cfb601783610c48565b9150610d0682610cc5565b602082019050919050565b60006020820190508181036000830152610d2a81610cee565b9050919050565b60805160a05160c05160e0516101005161012051613b8c610d8460003960008181610d9401526111a4015260005050600061129c0152600061126b01526000611245015260006111fe0152613b8c6000f3fe60806040526004361061019c5760003560e01c806379ba5097116100ec578063a36f573b1161008a578063b88d4fde11610064578063b88d4fde146105bb578063c87b56dd146105e4578063e985e9c514610621578063f2fde38b1461065e5761019c565b8063a36f573b14610523578063a51cccf314610560578063aa1524911461059d5761019c565b80638ea98117116100c65780638ea981171461047b57806395d89b41146104a45780639eccacf6146104cf578063a22cb465146104fa5761019c565b806379ba50971461040e5780637a5caab3146104255780638da5cb5b146104505761019c565b80633af25975116101595780635dacf5f4116101335780635dacf5f41461033e5780636352211e146103695780636e02007d146103a657806370a08231146103d15761019c565b80633af25975146102c15780633ccfd60b146102fe57806342842e0e146103155761019c565b806301ffc9a7146101a157806306fdde03146101de578063081812fc14610209578063095ea7b3146102465780631fe543e31461026f57806323b872dd14610298575b600080fd5b3480156101ad57600080fd5b506101c860048036038101906101c391906129d5565b610687565b6040516101d59190612a1d565b60405180910390f35b3480156101ea57600080fd5b506101f36106e8565b6040516102009190612ac8565b60405180910390f35b34801561021557600080fd5b50610230600480360381019061022b9190612b20565b61077a565b60405161023d9190612b8e565b60405180910390f35b34801561025257600080fd5b5061026d60048036038101906102689190612bd5565b610796565b005b34801561027b57600080fd5b5061029660048036038101906102919190612c7a565b6107ac565b005b3480156102a457600080fd5b506102bf60048036038101906102ba9190612cda565b610872565b005b3480156102cd57600080fd5b506102e860048036038101906102e39190612b20565b610974565b6040516102f59190612ac8565b60405180910390f35b34801561030a57600080fd5b50610313610a24565b005b34801561032157600080fd5b5061033c60048036038101906103379190612cda565b610ad8565b005b34801561034a57600080fd5b50610353610af8565b6040516103609190612dd8565b60405180910390f35b34801561037557600080fd5b50610390600480360381019061038b9190612b20565b610b23565b60405161039d9190612b8e565b60405180910390f35b3480156103b257600080fd5b506103bb610b35565b6040516103c89190612e02565b60405180910390f35b3480156103dd57600080fd5b506103f860048036038101906103f39190612e1d565b610b3f565b6040516104059190612e02565b60405180910390f35b34801561041a57600080fd5b50610423610bf9565b005b34801561043157600080fd5b5061043a610d90565b6040516104479190612e02565b60405180910390f35b34801561045c57600080fd5b50610465610db8565b6040516104729190612b8e565b60405180910390f35b34801561048757600080fd5b506104a2600480360381019061049d9190612e1d565b610de2565b005b3480156104b057600080fd5b506104b9610fc3565b6040516104c69190612ac8565b60405180910390f35b3480156104db57600080fd5b506104e4611055565b6040516104f19190612ea9565b60405180910390f35b34801561050657600080fd5b50610521600480360381019061051c9190612ef0565b61107b565b005b34801561052f57600080fd5b5061054a60048036038101906105459190612b20565b611091565b6040516105579190612b8e565b60405180910390f35b34801561056c57600080fd5b5061058760048036038101906105829190612b20565b6110c4565b6040516105949190612fa7565b60405180910390f35b6105a56111a0565b6040516105b29190612e02565b60405180910390f35b3480156105c757600080fd5b506105e260048036038101906105dd91906130f2565b611406565b005b3480156105f057600080fd5b5061060b60048036038101906106069190612b20565b61142b565b6040516106189190612ac8565b60405180910390f35b34801561062d57600080fd5b5061064860048036038101906106439190613175565b61153e565b6040516106559190612a1d565b60405180910390f35b34801561066a57600080fd5b5061068560048036038101906106809190612e1d565b6115d2565b005b6000634906490660e01b7bffffffffffffffffffffffffffffffffffffffffffffffffffffffff1916827bffffffffffffffffffffffffffffffffffffffffffffffffffffffff191614806106e157506106e0826115e6565b5b9050919050565b6060600080546106f7906131e4565b80601f0160208091040260200160405190810160405280929190818152602001828054610723906131e4565b80156107705780601f1061074557610100808354040283529160200191610770565b820191906000526020600020905b81548152906001019060200180831161075357829003601f168201915b5050505050905090565b6000610785826116c8565b5061078f82611750565b9050919050565b6107a882826107a361178d565b611795565b5050565b600960009054906101000a900473ffffffffffffffffffffffffffffffffffffffff1673ffffffffffffffffffffffffffffffffffffffff163373ffffffffffffffffffffffffffffffffffffffff16146108625733600960009054906101000a900473ffffffffffffffffffffffffffffffffffffffff166040517f1cf993f4000000000000000000000000000000000000000000000000000000008152600401610859929190613215565b60405180910390fd5b61086d8383836117a7565b505050565b600073ffffffffffffffffffffffffffffffffffffffff168273ffffffffffffffffffffffffffffffffffffffff16036108e45760006040517f64a0ae920000000000000000000000000000000000000000000000000000000081526004016108db9190612b8e565b60405180910390fd5b60006108f883836108f361178d565b61198c565b90508373ffffffffffffffffffffffffffffffffffffffff168173ffffffffffffffffffffffffffffffffffffffff161461096e578382826040517f64283d7b0000000000000000000000000000000000000000000000000000000081526004016109659392919061323e565b60405180910390fd5b50505050565b6060600b828154811061098a57610989613275565b5b90600052602060002001805461099f906131e4565b80601f01602080910402602001604051908101604052809291908181526020018280546109cb906131e4565b8015610a185780601f106109ed57610100808354040283529160200191610a18565b820191906000526020600020905b8154815290600101906020018083116109fb57829003601f168201915b50505050509050919050565b610a2c611ba6565b600047905060003373ffffffffffffffffffffffffffffffffffffffff1682604051610a57906132d5565b60006040518083038185875af1925050503d8060008114610a94576040519150601f19603f3d011682016040523d82523d6000602084013e610a99565b606091505b5050905080610ad4576040517fca7e25b700000000000000000000000000000000000000000000000000000000815260040160405180910390fd5b5050565b610af383838360405180602001604052806000815250611406565b505050565b610b00612947565b6040518060600160405280600a8152602001601e81526020016064815250905090565b6000610b2e826116c8565b9050919050565b6000600a54905090565b60008073ffffffffffffffffffffffffffffffffffffffff168273ffffffffffffffffffffffffffffffffffffffff1603610bb25760006040517f89c62b64000000000000000000000000000000000000000000000000000000008152600401610ba99190612b8e565b60405180910390fd5b600360008373ffffffffffffffffffffffffffffffffffffffff1673ffffffffffffffffffffffffffffffffffffffff168152602001908152602001600020549050919050565b600860009054906101000a900473ffffffffffffffffffffffffffffffffffffffff1673ffffffffffffffffffffffffffffffffffffffff163373ffffffffffffffffffffffffffffffffffffffff1614610c89576040517f08c379a0000000000000000000000000000000000000000000000000000000008152600401610c8090613336565b60405180910390fd5b6000600760009054906101000a900473ffffffffffffffffffffffffffffffffffffffff16905033600760006101000a81548173ffffffffffffffffffffffffffffffffffffffff021916908373ffffffffffffffffffffffffffffffffffffffff1602179055506000600860006101000a81548173ffffffffffffffffffffffffffffffffffffffff021916908373ffffffffffffffffffffffffffffffffffffffff1602179055503373ffffffffffffffffffffffffffffffffffffffff168173ffffffffffffffffffffffffffffffffffffffff167f8be0079c531659141344cd1fd0a4f28419497f9722a3daafe3b4186f6b6457e060405160405180910390a350565b60007f0000000000000000000000000000000000000000000000000000000000000000905090565b6000600760009054906101000a900473ffffffffffffffffffffffffffffffffffffffff16905090565b610dea610db8565b73ffffffffffffffffffffffffffffffffffffffff163373ffffffffffffffffffffffffffffffffffffffff1614158015610e735750600960009054906101000a900473ffffffffffffffffffffffffffffffffffffffff1673ffffffffffffffffffffffffffffffffffffffff163373ffffffffffffffffffffffffffffffffffffffff1614155b15610ee25733610e81610db8565b600960009054906101000a900473ffffffffffffffffffffffffffffffffffffffff166040517f061db9c1000000000000000000000000000000000000000000000000000000008152600401610ed993929190613356565b60405180910390fd5b600073ffffffffffffffffffffffffffffffffffffffff168173ffffffffffffffffffffffffffffffffffffffff1603610f48576040517fd92e233d00000000000000000000000000000000000000000000000000000000815260040160405180910390fd5b80600960006101000a81548173ffffffffffffffffffffffffffffffffffffffff021916908373ffffffffffffffffffffffffffffffffffffffff1602179055507fd1a6a14209a385a964d036e404cb5cfb71f4000cdb03c9366292430787261be681604051610fb89190612b8e565b60405180910390a150565b606060018054610fd2906131e4565b80601f0160208091040260200160405190810160405280929190818152602001828054610ffe906131e4565b801561104b5780601f106110205761010080835404028352916020019161104b565b820191906000526020600020905b81548152906001019060200180831161102e57829003601f168201915b5050505050905090565b600960009054906101000a900473ffffffffffffffffffffffffffffffffffffffff1681565b61108d61108661178d565b8383611c38565b5050565b600d6020528060005260406000206000915054906101000a900473ffffffffffffffffffffffffffffffffffffffff1681565b6000806000905060006110d5610af8565b905060005b600381101561116857828510158015611114575081816003811061110157611100613275565b5b60200201518361111191906133bc565b85105b156111365780600281111561112c5761112b612f30565b5b935050505061119b565b81816003811061114957611148613275565b5b60200201518361115991906133bc565b925080806001019150506110da565b506040517f12806c9d00000000000000000000000000000000000000000000000000000000815260040160405180910390fd5b919050565b60007f00000000000000000000000000000000000000000000000000000000000000003410156111fc576040517fb90f491000000000000000000000000000000000000000000000000000000000815260040160405180910390fd5b7f000000000000000000000000000000000000000000000000000000000000000073ffffffffffffffffffffffffffffffffffffffff16639b1c385e6040518060c001604052807f000000000000000000000000000000000000000000000000000000000000000081526020017f00000000000000000000000000000000000000000000000000000000000000008152602001600361ffff1681526020017f000000000000000000000000000000000000000000000000000000000000000063ffffffff168152602001600161ffff1663ffffffff1681526020016112f1604051806020016040528060001515815250611da7565b8152506040518263ffffffff1660e01b81526004016113109190613523565b6020604051808303816000875af115801561132f573d6000803e3d6000fd5b505050506040513d601f19601f82011682018060405250810190611353919061355a565b905033600d600083815260200190815260200160002060006101000a81548173ffffffffffffffffffffffffffffffffffffffff021916908373ffffffffffffffffffffffffffffffffffffffff160217905550600a60008154809291906113ba90613587565b91905055503373ffffffffffffffffffffffffffffffffffffffff16817ff873236e6cc0ecc5be1a9a35c95ee5b8d1ac4cc7bfef0cc5060391d6cc98e26b60405160405180910390a390565b611411848484610872565b61142561141c61178d565b85858585611e3f565b50505050565b6060611436826116c8565b506000600660008481526020019081526020016000208054611457906131e4565b80601f0160208091040260200160405190810160405280929190818152602001828054611483906131e4565b80156114d05780601f106114a5576101008083540402835291602001916114d0565b820191906000526020600020905b8154815290600101906020018083116114b357829003601f168201915b5050505050905060006114e1611ff0565b905060008151036114f6578192505050611539565b60008251111561152b57808260405160200161151392919061360b565b60405160208183030381529060405292505050611539565b61153484612007565b925050505b919050565b6000600560008473ffffffffffffffffffffffffffffffffffffffff1673ffffffffffffffffffffffffffffffffffffffff16815260200190815260200160002060008373ffffffffffffffffffffffffffffffffffffffff1673ffffffffffffffffffffffffffffffffffffffff16815260200190815260200160002060009054906101000a900460ff16905092915050565b6115da611ba6565b6115e381612070565b50565b60007f80ac58cd000000000000000000000000000000000000000000000000000000007bffffffffffffffffffffffffffffffffffffffffffffffffffffffff1916827bffffffffffffffffffffffffffffffffffffffffffffffffffffffff191614806116b157507f5b5e139f000000000000000000000000000000000000000000000000000000007bffffffffffffffffffffffffffffffffffffffffffffffffffffffff1916827bffffffffffffffffffffffffffffffffffffffffffffffffffffffff1916145b806116c157506116c08261219e565b5b9050919050565b6000806116d483612208565b9050600073ffffffffffffffffffffffffffffffffffffffff168173ffffffffffffffffffffffffffffffffffffffff160361174757826040517f7e27328900000000000000000000000000000000000000000000000000000000815260040161173e9190612e02565b60405180910390fd5b80915050919050565b60006004600083815260200190815260200160002060009054906101000a900473ffffffffffffffffffffffffffffffffffffffff169050919050565b600033905090565b6117a28383836001612245565b505050565b6000600d600085815260200190815260200160002060009054906101000a900473ffffffffffffffffffffffffffffffffffffffff16905060006001600a546117f0919061362f565b9050600060648585600081811061180a57611809613275565b5b9050602002013561181b9190613692565b90506000611828826110c4565b9050611834848461240a565b6118f683600b83600281111561184d5761184c612f30565b5b8154811061185e5761185d613275565b5b906000526020600020018054611873906131e4565b80601f016020809104026020016040519081016040528092919081815260200182805461189f906131e4565b80156118ec5780601f106118c1576101008083540402835291602001916118ec565b820191906000526020600020905b8154815290600101906020018083116118cf57829003601f168201915b5050505050612428565b600d600088815260200190815260200160002060006101000a81549073ffffffffffffffffffffffffffffffffffffffff02191690558373ffffffffffffffffffffffffffffffffffffffff1681600281111561195657611955612f30565b5b847f826d84de86b9d47351ad75c90b9a8b7211e761e448ccd64623fc26341dd0b8dc60405160405180910390a450505050505050565b60008061199884612208565b9050600073ffffffffffffffffffffffffffffffffffffffff168373ffffffffffffffffffffffffffffffffffffffff16146119da576119d9818486612484565b5b600073ffffffffffffffffffffffffffffffffffffffff168173ffffffffffffffffffffffffffffffffffffffff1614611a6b57611a1c600085600080612245565b6001600360008373ffffffffffffffffffffffffffffffffffffffff1673ffffffffffffffffffffffffffffffffffffffff168152602001908152602001600020600082825403925050819055505b600073ffffffffffffffffffffffffffffffffffffffff168573ffffffffffffffffffffffffffffffffffffffff1614611aee576001600360008773ffffffffffffffffffffffffffffffffffffffff1673ffffffffffffffffffffffffffffffffffffffff168152602001908152602001600020600082825401925050819055505b846002600086815260200190815260200160002060006101000a81548173ffffffffffffffffffffffffffffffffffffffff021916908373ffffffffffffffffffffffffffffffffffffffff160217905550838573ffffffffffffffffffffffffffffffffffffffff168273ffffffffffffffffffffffffffffffffffffffff167fddf252ad1be2c89b69c2b068fc378daa952ba7f163c4a11628f55a4df523b3ef60405160405180910390a4809150509392505050565b600760009054906101000a900473ffffffffffffffffffffffffffffffffffffffff1673ffffffffffffffffffffffffffffffffffffffff163373ffffffffffffffffffffffffffffffffffffffff1614611c36576040517f08c379a0000000000000000000000000000000000000000000000000000000008152600401611c2d9061370f565b60405180910390fd5b565b600073ffffffffffffffffffffffffffffffffffffffff168273ffffffffffffffffffffffffffffffffffffffff1603611ca957816040517f5b08ba18000000000000000000000000000000000000000000000000000000008152600401611ca09190612b8e565b60405180910390fd5b80600560008573ffffffffffffffffffffffffffffffffffffffff1673ffffffffffffffffffffffffffffffffffffffff16815260200190815260200160002060008473ffffffffffffffffffffffffffffffffffffffff1673ffffffffffffffffffffffffffffffffffffffff16815260200190815260200160002060006101000a81548160ff0219169083151502179055508173ffffffffffffffffffffffffffffffffffffffff168373ffffffffffffffffffffffffffffffffffffffff167f17307eab39ab6107e8899845ad3d59bd9653f200f220920489ca2b5937696c3183604051611d9a9190612a1d565b60405180910390a3505050565b60607f92fd13387c7fe7befbc38d303d6468778fb9731bc4583f17d92989c6fcfdeaaa82604051602401611ddb919061375a565b604051602081830303815290604052907bffffffffffffffffffffffffffffffffffffffffffffffffffffffff19166020820180517bffffffffffffffffffffffffffffffffffffffffffffffffffffffff83818316178352505050509050919050565b60008373ffffffffffffffffffffffffffffffffffffffff163b1115611fe9578273ffffffffffffffffffffffffffffffffffffffff1663150b7a02868685856040518563ffffffff1660e01b8152600401611e9e94939291906137bf565b6020604051808303816000875af1925050508015611eda57506040513d601f19601f82011682018060405250810190611ed79190613820565b60015b611f5e573d8060008114611f0a576040519150601f19603f3d011682016040523d82523d6000602084013e611f0f565b606091505b506000815103611f5657836040517f64a0ae92000000000000000000000000000000000000000000000000000000008152600401611f4d9190612b8e565b60405180910390fd5b805160208201fd5b63150b7a0260e01b7bffffffffffffffffffffffffffffffffffffffffffffffffffffffff1916817bffffffffffffffffffffffffffffffffffffffffffffffffffffffff191614611fe757836040517f64a0ae92000000000000000000000000000000000000000000000000000000008152600401611fde9190612b8e565b60405180910390fd5b505b5050505050565b606060405180602001604052806000815250905090565b6060612012826116c8565b50600061201d611ff0565b9050600081511161203d5760405180602001604052806000815250612068565b8061204784612548565b60405160200161205892919061360b565b6040516020818303038152906040525b915050919050565b3373ffffffffffffffffffffffffffffffffffffffff168173ffffffffffffffffffffffffffffffffffffffff16036120de576040517f08c379a00000000000000000000000000000000000000000000000000000000081526004016120d590613899565b60405180910390fd5b80600860006101000a81548173ffffffffffffffffffffffffffffffffffffffff021916908373ffffffffffffffffffffffffffffffffffffffff1602179055508073ffffffffffffffffffffffffffffffffffffffff16600760009054906101000a900473ffffffffffffffffffffffffffffffffffffffff1673ffffffffffffffffffffffffffffffffffffffff167fed8889f560326eb138920d842192f0eb3dd22b4f139c87a2c57538e05bae127860405160405180910390a350565b60007f01ffc9a7000000000000000000000000000000000000000000000000000000007bffffffffffffffffffffffffffffffffffffffffffffffffffffffff1916827bffffffffffffffffffffffffffffffffffffffffffffffffffffffff1916149050919050565b60006002600083815260200190815260200160002060009054906101000a900473ffffffffffffffffffffffffffffffffffffffff169050919050565b808061227e5750600073ffffffffffffffffffffffffffffffffffffffff168273ffffffffffffffffffffffffffffffffffffffff1614155b156123b257600061228e846116c8565b9050600073ffffffffffffffffffffffffffffffffffffffff168373ffffffffffffffffffffffffffffffffffffffff16141580156122f957508273ffffffffffffffffffffffffffffffffffffffff168173ffffffffffffffffffffffffffffffffffffffff1614155b801561230c575061230a818461153e565b155b1561234e57826040517fa9fbf51f0000000000000000000000000000000000000000000000000000000081526004016123459190612b8e565b60405180910390fd5b81156123b057838573ffffffffffffffffffffffffffffffffffffffff168273ffffffffffffffffffffffffffffffffffffffff167f8c5be1e5ebec7d5bd14f71427d1e84f3dd0314c0f7b2291e5b200ac8c7c3b92560405160405180910390a45b505b836004600085815260200190815260200160002060006101000a81548173ffffffffffffffffffffffffffffffffffffffff021916908373ffffffffffffffffffffffffffffffffffffffff16021790555050505050565b612424828260405180602001604052806000815250612616565b5050565b806006600084815260200190815260200160002090816124489190613a5b565b507ff8e1a15aba9398e019f0b49df1a4fde98ee17ae345cb5f6b5e2c27f5033e8ce7826040516124789190612e02565b60405180910390a15050565b61248f83838361263a565b61254357600073ffffffffffffffffffffffffffffffffffffffff168373ffffffffffffffffffffffffffffffffffffffff160361250457806040517f7e2732890000000000000000000000000000000000000000000000000000000081526004016124fb9190612e02565b60405180910390fd5b81816040517f177e802f00000000000000000000000000000000000000000000000000000000815260040161253a929190613b2d565b60405180910390fd5b505050565b606060006001612557846126fb565b01905060008167ffffffffffffffff81111561257657612575612fc7565b5b6040519080825280601f01601f1916602001820160405280156125a85781602001600182028036833780820191505090505b509050600082602083010190505b60011561260b578080600190039150507f3031323334353637383961626364656600000000000000000000000000000000600a86061a8153600a85816125ff576125fe613663565b5b049450600085036125b6575b819350505050919050565b612620838361284e565b61263561262b61178d565b6000858585611e3f565b505050565b60008073ffffffffffffffffffffffffffffffffffffffff168373ffffffffffffffffffffffffffffffffffffffff16141580156126f257508273ffffffffffffffffffffffffffffffffffffffff168473ffffffffffffffffffffffffffffffffffffffff1614806126b357506126b2848461153e565b5b806126f157508273ffffffffffffffffffffffffffffffffffffffff166126d983611750565b73ffffffffffffffffffffffffffffffffffffffff16145b5b90509392505050565b600080600090507a184f03e93ff9f4daa797ed6e38ed64bf6a1f0100000000000000008310612759577a184f03e93ff9f4daa797ed6e38ed64bf6a1f010000000000000000838161274f5761274e613663565b5b0492506040810190505b6d04ee2d6d415b85acef81000000008310612796576d04ee2d6d415b85acef8100000000838161278c5761278b613663565b5b0492506020810190505b662386f26fc1000083106127c557662386f26fc1000083816127bb576127ba613663565b5b0492506010810190505b6305f5e10083106127ee576305f5e10083816127e4576127e3613663565b5b0492506008810190505b612710831061281357612710838161280957612808613663565b5b0492506004810190505b60648310612836576064838161282c5761282b613663565b5b0492506002810190505b600a8310612845576001810190505b80915050919050565b600073ffffffffffffffffffffffffffffffffffffffff168273ffffffffffffffffffffffffffffffffffffffff16036128c05760006040517f64a0ae920000000000000000000000000000000000000000000000000000000081526004016128b79190612b8e565b60405180910390fd5b60006128ce8383600061198c565b9050600073ffffffffffffffffffffffffffffffffffffffff168173ffffffffffffffffffffffffffffffffffffffff16146129425760006040517f73c6ac6e0000000000000000000000000000000000000000000000000000000081526004016129399190612b8e565b60405180910390fd5b505050565b6040518060600160405280600390602082028036833780820191505090505090565b6000604051905090565b600080fd5b600080fd5b60007fffffffff0000000000000000000000000000000000000000000000000000000082169050919050565b6129b28161297d565b81146129bd57600080fd5b50565b6000813590506129cf816129a9565b92915050565b6000602082840312156129eb576129ea612973565b5b60006129f9848285016129c0565b91505092915050565b60008115159050919050565b612a1781612a02565b82525050565b6000602082019050612a326000830184612a0e565b92915050565b600081519050919050565b600082825260208201905092915050565b60005b83811015612a72578082015181840152602081019050612a57565b60008484015250505050565b6000601f19601f8301169050919050565b6000612a9a82612a38565b612aa48185612a43565b9350612ab4818560208601612a54565b612abd81612a7e565b840191505092915050565b60006020820190508181036000830152612ae28184612a8f565b905092915050565b6000819050919050565b612afd81612aea565b8114612b0857600080fd5b50565b600081359050612b1a81612af4565b92915050565b600060208284031215612b3657612b35612973565b5b6000612b4484828501612b0b565b91505092915050565b600073ffffffffffffffffffffffffffffffffffffffff82169050919050565b6000612b7882612b4d565b9050919050565b612b8881612b6d565b82525050565b6000602082019050612ba36000830184612b7f565b92915050565b612bb281612b6d565b8114612bbd57600080fd5b50565b600081359050612bcf81612ba9565b92915050565b60008060408385031215612bec57612beb612973565b5b6000612bfa85828601612bc0565b9250506020612c0b85828601612b0b565b9150509250929050565b600080fd5b600080fd5b600080fd5b60008083601f840112612c3a57612c39612c15565b5b8235905067ffffffffffffffff811115612c5757612c56612c1a565b5b602083019150836020820283011115612c7357612c72612c1f565b5b9250929050565b600080600060408486031215612c9357612c92612973565b5b6000612ca186828701612b0b565b935050602084013567ffffffffffffffff811115612cc257612cc1612978565b5b612cce86828701612c24565b92509250509250925092565b600080600060608486031215612cf357612cf2612973565b5b6000612d0186828701612bc0565b9350506020612d1286828701612bc0565b9250506040612d2386828701612b0b565b9150509250925092565b600060039050919050565b600081905092915050565b6000819050919050565b612d5681612aea565b82525050565b6000612d688383612d4d565b60208301905092915050565b6000602082019050919050565b612d8a81612d2d565b612d948184612d38565b9250612d9f82612d43565b8060005b83811015612dd0578151612db78782612d5c565b9650612dc283612d74565b925050600181019050612da3565b505050505050565b6000606082019050612ded6000830184612d81565b92915050565b612dfc81612aea565b82525050565b6000602082019050612e176000830184612df3565b92915050565b600060208284031215612e3357612e32612973565b5b6000612e4184828501612bc0565b91505092915050565b6000819050919050565b6000612e6f612e6a612e6584612b4d565b612e4a565b612b4d565b9050919050565b6000612e8182612e54565b9050919050565b6000612e9382612e76565b9050919050565b612ea381612e88565b82525050565b6000602082019050612ebe6000830184612e9a565b92915050565b612ecd81612a02565b8114612ed857600080fd5b50565b600081359050612eea81612ec4565b92915050565b60008060408385031215612f0757612f06612973565b5b6000612f1585828601612bc0565b9250506020612f2685828601612edb565b9150509250929050565b7f4e487b7100000000000000000000000000000000000000000000000000000000600052602160045260246000fd5b60038110612f7057612f6f612f30565b5b50565b6000819050612f8182612f5f565b919050565b6000612f9182612f73565b9050919050565b612fa181612f86565b82525050565b6000602082019050612fbc6000830184612f98565b92915050565b600080fd5b7f4e487b7100000000000000000000000000000000000000000000000000000000600052604160045260246000fd5b612fff82612a7e565b810181811067ffffffffffffffff8211171561301e5761301d612fc7565b5b80604052505050565b6000613031612969565b905061303d8282612ff6565b919050565b600067ffffffffffffffff82111561305d5761305c612fc7565b5b61306682612a7e565b9050602081019050919050565b82818337600083830152505050565b600061309561309084613042565b613027565b9050828152602081018484840111156130b1576130b0612fc2565b5b6130bc848285613073565b509392505050565b600082601f8301126130d9576130d8612c15565b5b81356130e9848260208601613082565b91505092915050565b6000806000806080858703121561310c5761310b612973565b5b600061311a87828801612bc0565b945050602061312b87828801612bc0565b935050604061313c87828801612b0b565b925050606085013567ffffffffffffffff81111561315d5761315c612978565b5b613169878288016130c4565b91505092959194509250565b6000806040838503121561318c5761318b612973565b5b600061319a85828601612bc0565b92505060206131ab85828601612bc0565b9150509250929050565b7f4e487b7100000000000000000000000000000000000000000000000000000000600052602260045260246000fd5b600060028204905060018216806131fc57607f821691505b60208210810361320f5761320e6131b5565b5b50919050565b600060408201905061322a6000830185612b7f565b6132376020830184612b7f565b9392505050565b60006060820190506132536000830186612b7f565b6132606020830185612df3565b61326d6040830184612b7f565b949350505050565b7f4e487b7100000000000000000000000000000000000000000000000000000000600052603260045260246000fd5b600081905092915050565b50565b60006132bf6000836132a4565b91506132ca826132af565b600082019050919050565b60006132e0826132b2565b9150819050919050565b7f4d7573742062652070726f706f736564206f776e657200000000000000000000600082015250565b6000613320601683612a43565b915061332b826132ea565b602082019050919050565b6000602082019050818103600083015261334f81613313565b9050919050565b600060608201905061336b6000830186612b7f565b6133786020830185612b7f565b6133856040830184612b7f565b949350505050565b7f4e487b7100000000000000000000000000000000000000000000000000000000600052601160045260246000fd5b60006133c782612aea565b91506133d283612aea565b92508282019050808211156133ea576133e961338d565b5b92915050565b6000819050919050565b613403816133f0565b82525050565b600061ffff82169050919050565b61342081613409565b82525050565b600063ffffffff82169050919050565b61343f81613426565b82525050565b600081519050919050565b600082825260208201905092915050565b600061346c82613445565b6134768185613450565b9350613486818560208601612a54565b61348f81612a7e565b840191505092915050565b600060c0830160008301516134b260008601826133fa565b5060208301516134c56020860182612d4d565b5060408301516134d86040860182613417565b5060608301516134eb6060860182613436565b5060808301516134fe6080860182613436565b5060a083015184820360a08601526135168282613461565b9150508091505092915050565b6000602082019050818103600083015261353d818461349a565b905092915050565b60008151905061355481612af4565b92915050565b6000602082840312156135705761356f612973565b5b600061357e84828501613545565b91505092915050565b600061359282612aea565b91507fffffffffffffffffffffffffffffffffffffffffffffffffffffffffffffffff82036135c4576135c361338d565b5b600182019050919050565b600081905092915050565b60006135e582612a38565b6135ef81856135cf565b93506135ff818560208601612a54565b80840191505092915050565b600061361782856135da565b915061362382846135da565b91508190509392505050565b600061363a82612aea565b915061364583612aea565b925082820390508181111561365d5761365c61338d565b5b92915050565b7f4e487b7100000000000000000000000000000000000000000000000000000000600052601260045260246000fd5b600061369d82612aea565b91506136a883612aea565b9250826136b8576136b7613663565b5b828206905092915050565b7f4f6e6c792063616c6c61626c65206279206f776e657200000000000000000000600082015250565b60006136f9601683612a43565b9150613704826136c3565b602082019050919050565b60006020820190508181036000830152613728816136ec565b9050919050565b61373881612a02565b82525050565b602082016000820151613754600085018261372f565b50505050565b600060208201905061376f600083018461373e565b92915050565b600082825260208201905092915050565b600061379182613445565b61379b8185613775565b93506137ab818560208601612a54565b6137b481612a7e565b840191505092915050565b60006080820190506137d46000830187612b7f565b6137e16020830186612b7f565b6137ee6040830185612df3565b81810360608301526138008184613786565b905095945050505050565b60008151905061381a816129a9565b92915050565b60006020828403121561383657613835612973565b5b60006138448482850161380b565b91505092915050565b7f43616e6e6f74207472616e7366657220746f2073656c66000000000000000000600082015250565b6000613883601783612a43565b915061388e8261384d565b602082019050919050565b600060208201905081810360008301526138b281613876565b9050919050565b60008190508160005260206000209050919050565b60006020601f8301049050919050565b600082821b905092915050565b60006008830261391b7fffffffffffffffffffffffffffffffffffffffffffffffffffffffffffffffff826138de565b61392586836138de565b95508019841693508086168417925050509392505050565b600061395861395361394e84612aea565b612e4a565b612aea565b9050919050565b6000819050919050565b6139728361393d565b61398661397e8261395f565b8484546138eb565b825550505050565b600090565b61399b61398e565b6139a6818484613969565b505050565b5b818110156139ca576139bf600082613993565b6001810190506139ac565b5050565b601f821115613a0f576139e0816138b9565b6139e9846138ce565b810160208510156139f8578190505b613a0c613a04856138ce565b8301826139ab565b50505b505050565b600082821c905092915050565b6000613a3260001984600802613a14565b1980831691505092915050565b6000613a4b8383613a21565b9150826002028217905092915050565b613a6482612a38565b67ffffffffffffffff811115613a7d57613a7c612fc7565b5b613a8782546131e4565b613a928282856139ce565b600060209050601f831160018114613ac55760008415613ab3578287015190505b613abd8582613a3f565b865550613b25565b601f198416613ad3866138b9565b60005b82811015613afb57848901518255600182019150602085019450602081019050613ad6565b86831015613b185784890151613b14601f891682613a21565b8355505b6001600288020188555050505b505050505050565b6000604082019050613b426000830185612b7f565b613b4f6020830184612df3565b939250505056fea2646970667358221220a27f3c5b790289a39679e05b9285eae68381dcc2128e077cd312fc2da99ee38f64736f6c634300081c0033",
  "linkReferences": {},
  "deployedLinkReferences": {}
}